:100000000C943E000C94DB000C94EF000C94320135
:100010000C945B000C945B000C945B000C945B00F4
:100020000C945B000C945B000C945B000C947501C9
:100030000C945B000C945B000C945B000C945B00D4
:100040000C945B000C945B000C945B000C945B00C4
:100050000C945B00A203B303C403D503E603F703C8
:10006000080419042A043B0456046704780489042C
:100070009A04AB04BC04CD04DE04EF0411241FBEBB
:10008000CFE5D8E0DEBFCDBF10E0A0E6B0E0E6EF00
:10009000F3E102C005900D92A236B107D9F720E036
:1000A000A2E6B0E001C01D92A638B207E1F70E94B7
:1000B0005D000C94F9090C9400000E94FA020E9461
:1000C00009030E94B4020E941C030E9442030E9482
:1000D000C6020E94A90764E670E080E090E00E94FA
:1000E000B6070E9405080E943F030E94C3020E94B7
:1000F000010510927B0010927D0080E00E94E302D7
:100100008F3F29F080E00E94E3028093600080919D
:100110007B00811109C00E94BE020E9413030E944D
:10012000040310927C0023C0813009F520917600F1
:1001300030E08091600090E0AC01455051094217D9
:10014000530744F00E94FF020E94BE0282E08093A7
:100150007C000DC00596281739074CF00E94040357
:100160000E94B9020E940E0381E080937C0080917E
:100170007B00813061F680917D0081110AC0809101
:1001800079000E94840381E080937A000E946B03CF
:1001900009C0813039F482E080937A008091600058
:1001A0000E94840380917B008111B1CF10927A006C
:1001B0000E947403ACCF1F920F920FB60F921124BE
:1001C0008F939F9390917B0081E0892780937B00A0
:1001D0009F918F910F900FBE0F901F9018951F92B7
:1001E0000F920FB60F9211242F933F934F935F936B
:1001F0006F937F938F939F93AF93BF93EF93FF93EF
:1002000080917D00811104C081E080937D0019C040
:100210008130B9F410927200109273001092740041
:1002200010927500809160008B5F809360008C3429
:1002300018F08BE4809360006091600080E00E9481
:10024000C902FF91EF91BF91AF919F918F917F91E3
:100250006F915F914F913F912F910F900FBE0F9033
:100260001F9018951F920F920FB60F9211242F9383
:100270003F934F935F936F937F938F939F93AF932E
:10028000BF93EF93FF9380917D00811104C081E0C3
:1002900080937D0019C08130B9F4109272001092E1
:1002A0007300109274001092750080916000855068
:1002B00080936000833218F483E280936000609141
:1002C000600080E00E94C902FF91EF91BF91AF9161
:1002D0009F918F917F916F915F914F913F912F915E
:1002E0000F900FBE0F901F9018951F920F920FB690
:1002F0000F9211242F933F934F935F936F937F93AC
:100300008F939F93AF93BF93EF93FF9380916E0072
:1003100090916F00A0917000B09171000196A11DA5
:10032000B11D80936E0090936F00A0937000B09306
:10033000710040916A0050916B0060916C00709167
:100340006D004F5F5F4F6F4F7F4F40936A00509338
:100350006B0060936C0070936D0040917E00509133
:100360007F00609180007091810084179507A60737
:10037000B70709F05FC00E941F03809379002091A6
:10038000770030917800A901480F511D50937800F3
:100390004093770010926E0010926F0010927000E0
:1003A0001092710080917D00813099F480917200EB
:1003B00090917300A0917400B09175000196A11DF9
:1003C000B11D8093720090937300A0937400B0935A
:1003D000750080917A00823099F480916600909146
:1003E0006700A0916800B09169000196A11DB11D40
:1003F0008093660090936700A0936800B0936900B3
:1004000080917C00823099F4809162009091630029
:10041000A0916400B09165000196A11DB11D80936B
:10042000620090936300A0936400B0936500809194
:10043000820082BF8091660090916700A091680061
:10044000B09169000A97A105B10551F40E947D039E
:100450001092660010926700109268001092690076
:100460008091620090916300A0916400B09165005A
:100470000A97A105B10551F40E9418031092620079
:1004800010926300109264001092650080917E00CB
:1004900090917F00A0918000B0918100880F991FFA
:1004A000AA1FBB1FAC01BD01440F551F661F771F5C
:1004B000440F551F661F771F840F951FA61FB71F78
:1004C00040916A0050916B0060916C0070916D00DA
:1004D00084179507A607B707E1F4209177003091BC
:1004E0007800ADECBCEC0E94DF0996958795969557
:1004F0008795969587958093760010927800109254
:10050000770010926A0010926B0010926C001092AB
:100510006D008091720090917300A0917400B09171
:100520007500C297A105B10571F480917D008130FD
:1005300051F410927D00109272001092730010928C
:10054000740010927500FF91EF91BF91AF919F9150
:100550008F917F916F915F914F913F912F910F906C
:100560000FBE0F901F90189561E085E20E94310543
:10057000089561E085E20E942006089560E085E22A
:100580000E94200608950E949F0708950E940F0868
:100590000895CF93DF93D82FC62F0E941E0880E5C1
:1005A0000E944C088D2F0E9472088C2F0E947208A6
:1005B0000E94A8088FE39CE90197F1F700C00000B2
:1005C000DF91CF910895CF93C82F0E941E0880E538
:1005D0000E944C088C2F0E9472080E94350880E50A
:1005E0000E9459080E948A08C82F0E94A8088C2FD0
:1005F000CF91089561E08AE00E943105089561E09D
:100600008AE00E942006089560E08AE00E942006A9
:10061000089561E080E20E943105089561E080E282
:100620000E942006089560E080E20E94200608955E
:1006300080E20E940F0708950E94040508950E9419
:100640002905BC017727072E000C880B990B0E9407
:10065000E00820E030E040EA50E40E94440920E055
:1006600030E048EC52E40E94440920E030E040E8E9
:100670005AE30E9444090E94AF08862F08950E9401
:100680008507089561E08EE00E94310561E08FE00A
:100690000E94310561E080E10E94310561E081E165
:1006A0000E94310561E08CE20E94310561E08DE23B
:1006B0000E94310561E08EE20E94310561E08FE227
:1006C0000E94310561E081E20E94310561E082E231
:1006D0000E943105089561E081E20E94200661E0F8
:1006E00082E20E942006089560E081E20E942006D6
:1006F00060E082E20E942006089581E20E940F07D6
:1007000082E20E940F070895CF932DEC829F212D46
:100710001124E22FE695E695E6959E2F990FE92F95
:10072000EE0FEE0FE90F8E1BC22FC695C695C6952C
:1007300090E08A30910508F0AEC0FC01E65DFF4F05
:100740000C94D90960E08EE00E94200660E08FE002
:100750000E94200660E080E10E94200660E081E1C6
:100760000E94200698C061E08EE00E94200660E0B2
:100770008FE00E94200660E080E10E94200660E099
:1007800081E10E94200687C060E08EE00E94200682
:1007900061E08FE00E94200660E080E10E94200678
:1007A00060E081E10E94200676C061E08EE00E9458
:1007B000200661E08FE00E94200660E080E10E9458
:1007C000200660E081E10E94200665C060E08EE0C6
:1007D0000E94200660E08FE00E94200661E080E138
:1007E0000E94200660E081E10E94200654C061E082
:1007F0008EE00E94200660E08FE00E94200661E00B
:1008000080E10E94200660E081E10E94200643C052
:1008100060E08EE00E94200661E08FE00E942006EA
:1008200061E080E10E94200660E081E10E942006F4
:1008300032C061E08EE00E94200661E08FE00E94FD
:10084000200661E080E10E94200660E081E10E94D4
:10085000200621C060E08EE00E94200660E08FE06C
:100860000E94200660E080E10E94200661E081E1B4
:100870000E94200610C061E08EE00E94200660E029
:100880008FE00E94200660E080E10E94200661E087
:1008900081E10E9420068C2F90E08A30910508F0BB
:1008A000AEC0FC01EC5CFF4F0C94D90960E08CE217
:1008B0000E94200660E08DE20E94200660E08EE249
:1008C0000E94200660E08FE20E94200698C061E04E
:1008D0008CE20E94200660E08DE20E94200660E02B
:1008E0008EE20E94200660E08FE20E94200687C010
:1008F00060E08CE20E94200661E08DE20E9420060A
:1009000060E08EE20E94200660E08FE20E942006F6
:1009100076C061E08CE20E94200661E08DE20E94D8
:10092000200660E08EE20E94200660E08FE20E94D6
:10093000200665C060E08CE20E94200660E08DE247
:100940000E94200661E08EE20E94200660E08FE2B5
:100950000E94200654C061E08CE20E94200660E004
:100960008DE20E94200661E08EE20E94200660E097
:100970008FE20E94200643C060E08CE20E942006C5
:1009800061E08DE20E94200661E08EE20E94200676
:1009900060E08FE20E94200632C061E08CE20E949B
:1009A000200661E08DE20E94200661E08EE20E9456
:1009B000200660E08FE20E94200621C060E08CE209
:1009C0000E94200660E08DE20E94200660E08EE238
:1009D0000E94200661E08FE20E94200610C061E0C4
:1009E0008CE20E94200660E08DE20E94200660E01A
:1009F0008EE20E94200661E08FE20E942006CF91E5
:100A000008950E949207089587B18F7787B987B1BB
:100A1000806487B987B1816087B987B18D7F87B9D5
:100A200087B18B7F87B987B1877F87B987B18F7E81
:100A300087B986B1816086B986B1826086B986B190
:100A4000846086B986B1806886B986B1806286B9CD
:100A5000089586B1806486B9349BFECF84B195B188
:100A600008959DEC899F912D1124969596959695C4
:100A7000662309F472C0613009F0E1C0923021F1BF
:100A800018F4913039F008959330C1F1943009F49D
:100A90004CC008959DEC899F912D112496959695B3
:100AA0009695990F292F220F220F920F891B47B37A
:100AB00021E030E0B90102C0660F771F8A95E2F7A6
:100AC000CB01842B87BB08959DEC899F912D112428
:100AD00092959F70990F990F292F220F220F920F35
:100AE000891B41B321E030E0B90102C0660F771FD6
:100AF0008A95E2F7CB01842B81BB089599E8899F01
:100B0000912D112492959F707EE1979F8019112459
:100B100044B321E030E0B90102C0660F771F8A9527
:100B2000E2F7CB01842B84BB08959DEC899F912D26
:100B3000112492959695977078E2979F80191124C9
:100B40004AB321E030E0B90102C0660F771F8A95F1
:100B5000E2F7CB01842B8ABB0895923029F118F477
:100B6000913039F008959330D1F1943009F44FC0A9
:100B700008959DEC899F912D1124969596959695B3
:100B8000990F292F220F220F920F891B47B321E0C3
:100B900030E0B90102C0660F771F8A95E2F7CB01FA
:100BA0008095842387BB08959DEC899F912D112406
:100BB00092959F70990F990F292F220F220F920F54
:100BC000891B41B321E030E0B90102C0660F771FF5
:100BD0008A95E2F7CB018095842381BB089599E83B
:100BE000899F912D112492959F707EE1979F801986
:100BF000112444B321E030E0B90102C0660F771F31
:100C00008A95E2F7CB018095842384BB08959DECFF
:100C1000899F912D112492959695977078E2979FD0
:100C2000801911244AB321E030E0B90102C0660FF7
:100C3000771F8A95E2F7CB01809584238ABB0895BC
:100C40009DEC899F912D11249695969596956623F6
:100C500009F472C0613009F0E1C0923021F118F45A
:100C6000913039F008959330C1F1943009F44CC0BB
:100C700008959DEC899F912D1124969596959695B2
:100C8000990F292F220F220F920F891B48B321E0C1
:100C900030E0B90102C0660F771F8A95E2F7CB01F9
:100CA000842B88BB08959DEC899F912D11249295EA
:100CB0009F70990F990F292F220F220F920F891BD6
:100CC00042B321E030E0B90102C0660F771F8A9578
:100CD000E2F7CB01842B82BB089599E8899F912D7F
:100CE000112492959F707EE1979F8019112445B33E
:100CF00021E030E0B90102C0660F771F8A95E2F764
:100D0000CB01842B85BB08959DEC899F912D1124E7
:100D100092959695977078E2979F801911244BB31E
:100D200021E030E0B90102C0660F771F8A95E2F733
:100D3000CB01842B8BBB0895923029F118F49130AC
:100D400039F008959330D1F1943009F44FC00895EB
:100D50009DEC899F912D1124969596959695990FC6
:100D6000292F220F220F920F891B48B321E030E078
:100D7000B90102C0660F771F8A95E2F7CB01809513
:100D8000842388BB08959DEC899F912D1124929511
:100D90009F70990F990F292F220F220F920F891BF5
:100DA00042B321E030E0B90102C0660F771F8A9597
:100DB000E2F7CB018095842382BB089599E8899F4F
:100DC000912D112492959F707EE1979F8019112497
:100DD00045B321E030E0B90102C0660F771F8A9564
:100DE000E2F7CB018095842385BB08959DEC899F14
:100DF000912D112492959695977078E2979F80197E
:100E000011244BB321E030E0B90102C0660F771F17
:100E10008A95E2F7CB01809584238BBB08959DECE6
:100E2000899F912D1124969596959695923021F152
:100E300018F4913039F008959330C1F1943009F4E9
:100E40004CC008959DEC899F912D112496959695FF
:100E50009695990F292F220F220F920F891B48B3C5
:100E600021E030E0B90102C0660F771F8A95E2F7F2
:100E7000CB01842788BB08959DEC899F912D112477
:100E800092959F70990F990F292F220F220F920F81
:100E9000891B42B321E030E0B90102C0660F771F21
:100EA0008A95E2F7CB01842782BB089599E8899F50
:100EB000912D112492959F707EE1979F80191124A6
:100EC00045B321E030E0B90102C0660F771F8A9573
:100ED000E2F7CB01842785BB08959DEC899F912D76
:100EE000112492959695977078E2979F8019112416
:100EF0004BB321E030E0B90102C0660F771F8A953D
:100F0000E2F7CB0184278BBB08958FB780688FBF32
:100F10008BB780648BBF85B78E7F85BF85B78260B6
:100F200085BF08958FB780688FBF8BB780688BBFF0
:100F300085B7846085BF85B7886085BF08958FB702
:100F400080688FBF8BB780628BBF84B7806484BF9B
:100F5000089583B7877F83BF83B78F7B83BF8FB7A6
:100F600080688FBF89B7816089BF08950F931F93F1
:100F70009B01AC01A8EEB3E00E94EE098B019C013D
:100F8000689415F836952795179507951694D1F717
:100F9000DC01CB01072E7EE0B695A7959795879546
:100FA0007A95D1F7702D80937E0090937F00A09367
:100FB0008000B0938100D901C80180959095A095DB
:100FC000B0959927AA27BB2780938200909383002E
:100FD000A0938400B09385000023A1F082BF80918C
:100FE0007E0090917F00A0918000B09181000196D9
:100FF000A11DB11D80937E0090937F00A09380007F
:10100000B09381001F910F91089583B7816083BFD2
:1010100083B78D7F83BF83B7846083BF089588E4DF
:1010200080B986B7846086BF2FEF81EE94E02150AF
:1010300080409040E1F700C00000089586B78062CC
:1010400086BF86B7806886BF06B607FEFDCF81B132
:10105000887F8830E1F72FEF81EE94E021508040C7
:101060009040E1F700C00000089586B7806286BF17
:1010700086B7806886BF06B607FEFDCF81B1887F40
:101080008031E1F72FEF81EE94E0215080409040D5
:10109000E1F700C000000895880F83B986B7806823
:1010A00086BF06B607FEFDCF81B1887F8831E1F7A4
:1010B000089590E0880F991F816083B986B7806892
:1010C00086BF06B607FEFDCF81B1887F8034E1F789
:1010D0002FEF81EE94E0215080409040E1F700C076
:1010E0000000089583B986B78F7D86BF86B7806874
:1010F00086BF06B607FEFDCF81B1887F8832E1F753
:101100002FEF81EE94E0215080409040E1F700C045
:101110000000089586B78F7D86BF86B78F7E86BF15
:1011200086B7806486BF86B7806886BF06B607FE2E
:10113000FDCF81B1887F8035E1F72FEF81EE94E01C
:10114000215080409040E1F700C0000083B1089535
:1011500086B7806186BF86B7806886BF08950E9483
:10116000230988F09F5798F0B92F9927B751B0F00D
:10117000E1F0660F771F881F991F1AF0BA95C9F71B
:1011800014C0B13091F00E943D09B1E008950C9473
:101190003D09672F782F8827B85F39F0B93FCCF326
:1011A000869577956795B395D9F73EF49095809598
:1011B000709561957F4F8F4F9F4F0895E89409C0B8
:1011C00097FB3EF490958095709561957F4F8F4F7A
:1011D0009F4F9923A9F0F92F96E9BB279395F69590
:1011E000879577956795B795F111F8CFFAF4BB0F0E
:1011F00011F460FF1BC06F5F7F4F8F4F9F4F16C072
:10120000882311F096E911C0772321F09EE8872FFB
:10121000762F05C0662371F096E8862F70E060E0B7
:101220002AF09A95660F771F881FDAF7880F969530
:10123000879597F9089557FD9058440F551F59F019
:101240005F3F71F04795880F97FB991F61F09F3FB3
:1012500079F087950895121613061406551FF2CFDC
:101260004695F1DF08C0161617061806991FF1CF2C
:1012700086957105610508940895E894BB27662753
:101280007727CB0197F908950E9457090C94C80954
:101290000E94BA0938F00E94C10920F0952311F08C
:1012A0000C94B1090C94B70911240C943E090E94C6
:1012B0001B0970F3959FC1F3950F50E0551F629F76
:1012C000F001729FBB27F00DB11D639FAA27F00D9F
:1012D000B11DAA1F649F6627B00DA11D661F829FC6
:1012E0002227B00DA11D621F739FB00DA11D621FAB
:1012F000839FA00D611D221F749F3327A00D611DC8
:10130000231F849F600D211D822F762F6A2F1124A9
:101310009F5750409AF0F1F088234AF0EE0FFF1FDC
:10132000BB1F661F771F881F91505040A9F79E3F33
:10133000510580F00C94B1090C943E095F3FE4F331
:10134000983ED4F3869577956795B795F795E79589
:101350009F5FC1F7FE2B880F911D9695879597F992
:10136000089597F99F6780E870E060E008959FEF27
:1013700080EC089500240A9416161706180609062C
:10138000089500240A9412161306140605060895FB
:10139000092E0394000C11F4882352F0BB0F40F483
:1013A000BF2B11F460FF04C06F5F7F4F8F4F9F4FC3
:1013B0000895EE0FFF1F0590F491E02D0994A29F70
:1013C000B001B39FC001A39F700D811D1124911D19
:1013D000B29F700D811D1124911D08950E94DF0997
:1013E000A59F900DB49F900DA49F800D911D112479
:0613F0000895F894FFCF00
:0213F6003C00B9
:00000001FF
